{
  "contractName": "DaiFaucet",
  "abi": [
    {
      "constant": false,
      "inputs": [],
      "name": "requestDai",
      "outputs": [],
      "payable": false,
      "stateMutability": "nonpayable",
      "type": "function"
    }
  ],
  "bytecode": "0x6080604052736b175474e89094c44da98b954eedeac495271d0f6000806101000a81548173ffffffffffffffffffffffffffffffffffffffff021916908373ffffffffffffffffffffffffffffffffffffffff16021790555034801561006457600080fd5b5061015d806100746000396000f3fe608060405234801561001057600080fd5b506004361061002b5760003560e01c8063b5589a7314610030575b600080fd5b61003861003a565b005b6000809054906101000a900473ffffffffffffffffffffffffffffffffffffffff1673ffffffffffffffffffffffffffffffffffffffff1663a9059cbb33671bc16d674ec800006040518363ffffffff1660e01b8152600401808373ffffffffffffffffffffffffffffffffffffffff1673ffffffffffffffffffffffffffffffffffffffff16815260200182815260200192505050602060405180830381600087803b1580156100ea57600080fd5b505af11580156100fe573d6000803e3d6000fd5b505050506040513d602081101561011457600080fd5b81019080805190602001909291905050505056fea265627a7a72315820fe448a020f8bd2d4a33a574793d7dcbd5cdf47544f69a046361c83e8b81ea99164736f6c63430005100032",
  "source": "pragma solidity >=0.4.21 <0.6.0;\n\ninterface DaiToken {\n    function transfer(address to, uint256 amount) external returns (bool);\n}\n\ncontract DaiFaucet {\n    DaiToken daiToken = DaiToken(0x6B175474E89094C44Da98b954EedeAC495271d0F);\n\n    function requestDai() public {\n        daiToken.transfer(msg.sender, 2000000000000000000);\n        // Transfer Dai to Calleer\n    }\n}\n",
  "sourcePath": "/Users/kevinkeaveney/Developer/MasteryUnivercity/ganache-fork/src/contracts/DaiFaucet.sol",
  "compiler": {
    "name": "solc",
    "version": "0.5.16+commit.9c3226ce.Emscripten.clang"
  },
  "schemaVersion": "3.2.0",
  "updatedAt": "2020-10-20T14:42:47.776Z",
  "networkType": "ethereum",
  "devdoc": {
    "methods": {}
  },
  "userdoc": {
    "methods": {}
  }
}